{
  "contractName": "GroupPayment",
  "abi": [
    {
      "inputs": [
        {
          "internalType": "uint256",
          "name": "",
          "type": "uint256"
        },
        {
          "internalType": "address",
          "name": "",
          "type": "address"
        }
      ],
      "name": "contributions",
      "outputs": [
        {
          "internalType": "uint256",
          "name": "",
          "type": "uint256"
        }
      ],
      "stateMutability": "view",
      "type": "function",
      "constant": true
    },
    {
      "inputs": [],
      "name": "groupCount",
      "outputs": [
        {
          "internalType": "uint256",
          "name": "",
          "type": "uint256"
        }
      ],
      "stateMutability": "view",
      "type": "function",
      "constant": true
    },
    {
      "inputs": [
        {
          "internalType": "uint256",
          "name": "",
          "type": "uint256"
        }
      ],
      "name": "groups",
      "outputs": [
        {
          "internalType": "address payable",
          "name": "creator",
          "type": "address"
        },
        {
          "internalType": "uint256",
          "name": "totalAmount",
          "type": "uint256"
        },
        {
          "internalType": "uint256",
          "name": "balance",
          "type": "uint256"
        }
      ],
      "stateMutability": "view",
      "type": "function",
      "constant": true
    },
    {
      "inputs": [
        {
          "internalType": "address[]",
          "name": "_participants",
          "type": "address[]"
        },
        {
          "internalType": "uint256",
          "name": "_totalAmount",
          "type": "uint256"
        }
      ],
      "name": "createGroup",
      "outputs": [],
      "stateMutability": "nonpayable",
      "type": "function"
    },
    {
      "inputs": [
        {
          "internalType": "uint256",
          "name": "_groupId",
          "type": "uint256"
        }
      ],
      "name": "pay",
      "outputs": [],
      "stateMutability": "payable",
      "type": "function",
      "payable": true
    },
    {
      "inputs": [
        {
          "internalType": "uint256",
          "name": "_groupId",
          "type": "uint256"
        },
        {
          "internalType": "address",
          "name": "_participant",
          "type": "address"
        }
      ],
      "name": "checkPayment",
      "outputs": [
        {
          "internalType": "uint256",
          "name": "",
          "type": "uint256"
        }
      ],
      "stateMutability": "view",
      "type": "function",
      "constant": true
    },
    {
      "inputs": [
        {
          "internalType": "uint256",
          "name": "_groupId",
          "type": "uint256"
        }
      ],
      "name": "distribute",
      "outputs": [],
      "stateMutability": "nonpayable",
      "type": "function"
    }
  ],
  "bytecode": "0x608060405234801561001057600080fd5b50610c22806100206000396000f3fe6080604052600436106100705760003560e01c806391c05b0b1161004e57806391c05b0b1461011a57806396324bd414610143578063bdb07e6814610182578063c290d691146101ab57610070565b80633d891f59146100755780634a95c5a7146100b25780638f23b326146100ef575b600080fd5b34801561008157600080fd5b5061009c60048036038101906100979190610813565b6101c7565b6040516100a991906109ea565b60405180910390f35b3480156100be57600080fd5b506100d960048036038101906100d49190610813565b6101ec565b6040516100e691906109ea565b60405180910390f35b3480156100fb57600080fd5b50610104610247565b60405161011191906109ea565b60405180910390f35b34801561012657600080fd5b50610141600480360381019061013c91906107ea565b61024d565b005b34801561014f57600080fd5b5061016a600480360381019061016591906107ea565b61032b565b60405161017993929190610953565b60405180910390f35b34801561018e57600080fd5b506101a960048036038101906101a49190610796565b610375565b005b6101c560048036038101906101c091906107ea565b610419565b005b6001602052816000526040600020602052806000526040600020600091509150505481565b60006001600084815260200190815260200160002060008373ffffffffffffffffffffffffffffffffffffffff1673ffffffffffffffffffffffffffffffffffffffff16815260200190815260200160002054905092915050565b60025481565b600080600083815260200190815260200160002090508060010154816003015410156102ae576040517f08c379a00000000000000000000000000000000000000000000000000000000081526004016102a5906109ca565b60405180910390fd5b8060000160009054906101000a900473ffffffffffffffffffffffffffffffffffffffff1673ffffffffffffffffffffffffffffffffffffffff166108fc82600301549081150290604051600060405180830381858888f1935050505015801561031c573d6000803e3d6000fd5b50600081600301819055505050565b60006020528060005260406000206000915090508060000160009054906101000a900473ffffffffffffffffffffffffffffffffffffffff16908060010154908060030154905083565b6002600081548092919061038890610b17565b9190505550600080600060025481526020019081526020016000209050338160000160006101000a81548173ffffffffffffffffffffffffffffffffffffffff021916908373ffffffffffffffffffffffffffffffffffffffff1602179055508181600101819055508281600201908051906020019061040992919061062f565b5060008160030181905550505050565b6000806000838152602001908152602001600020905060003411610472576040517f08c379a00000000000000000000000000000000000000000000000000000000081526004016104699061098a565b60405180910390fd5b61047c8233610541565b6104bb576040517f08c379a00000000000000000000000000000000000000000000000000000000081526004016104b2906109aa565b60405180910390fd5b346001600084815260200190815260200160002060003373ffffffffffffffffffffffffffffffffffffffff1673ffffffffffffffffffffffffffffffffffffffff168152602001908152602001600020600082825461051b9190610a73565b92505081905550348160030160008282546105369190610a73565b925050819055505050565b600080600080858152602001908152602001600020905060005b8160020180549050811015610622578373ffffffffffffffffffffffffffffffffffffffff168260020182815481106105bd577f4e487b7100000000000000000000000000000000000000000000000000000000600052603260045260246000fd5b9060005260206000200160009054906101000a900473ffffffffffffffffffffffffffffffffffffffff1673ffffffffffffffffffffffffffffffffffffffff16141561060f57600192505050610629565b808061061a90610b17565b91505061055b565b5060009150505b92915050565b8280548282559060005260206000209081019282156106a8579160200282015b828111156106a75782518260006101000a81548173ffffffffffffffffffffffffffffffffffffffff021916908373ffffffffffffffffffffffffffffffffffffffff1602179055509160200191906001019061064f565b5b5090506106b591906106b9565b5090565b5b808211156106d25760008160009055506001016106ba565b5090565b60006106e96106e484610a36565b610a05565b9050808382526020820190508285602086028201111561070857600080fd5b60005b85811015610738578161071e8882610742565b84526020840193506020830192505060018101905061070b565b5050509392505050565b60008135905061075181610bbe565b92915050565b600082601f83011261076857600080fd5b81356107788482602086016106d6565b91505092915050565b60008135905061079081610bd5565b92915050565b600080604083850312156107a957600080fd5b600083013567ffffffffffffffff8111156107c357600080fd5b6107cf85828601610757565b92505060206107e085828601610781565b9150509250929050565b6000602082840312156107fc57600080fd5b600061080a84828501610781565b91505092915050565b6000806040838503121561082657600080fd5b600061083485828601610781565b925050602061084585828601610742565b9150509250929050565b61085881610adb565b82525050565b600061086b602283610a62565b91507f5061796d656e74206d7573742062652067726561746572207468616e207a657260008301527f6f2e0000000000000000000000000000000000000000000000000000000000006020830152604082019050919050565b60006108d1601883610a62565b91507f4e6f7420612067726f7570207061727469636970616e742e00000000000000006000830152602082019050919050565b6000610911601383610a62565b91507f496e73756666696369656e742066756e64732e000000000000000000000000006000830152602082019050919050565b61094d81610b0d565b82525050565b6000606082019050610968600083018661084f565b6109756020830185610944565b6109826040830184610944565b949350505050565b600060208201905081810360008301526109a38161085e565b9050919050565b600060208201905081810360008301526109c3816108c4565b9050919050565b600060208201905081810360008301526109e381610904565b9050919050565b60006020820190506109ff6000830184610944565b92915050565b6000604051905081810181811067ffffffffffffffff82111715610a2c57610a2b610b8f565b5b8060405250919050565b600067ffffffffffffffff821115610a5157610a50610b8f565b5b602082029050602081019050919050565b600082825260208201905092915050565b6000610a7e82610b0d565b9150610a8983610b0d565b9250827fffffffffffffffffffffffffffffffffffffffffffffffffffffffffffffffff03821115610abe57610abd610b60565b5b828201905092915050565b6000610ad482610aed565b9050919050565b6000610ae682610aed565b9050919050565b600073ffffffffffffffffffffffffffffffffffffffff82169050919050565b6000819050919050565b6000610b2282610b0d565b91507fffffffffffffffffffffffffffffffffffffffffffffffffffffffffffffffff821415610b5557610b54610b60565b5b600182019050919050565b7f4e487b7100000000000000000000000000000000000000000000000000000000600052601160045260246000fd5b7f4e487b7100000000000000000000000000000000000000000000000000000000600052604160045260246000fd5b610bc781610ac9565b8114610bd257600080fd5b50565b610bde81610b0d565b8114610be957600080fd5b5056fea2646970667358221220c27ac9dcc2ad4ddb0817a5e7a65e31dda958ecbb7172b06dec12bd07898d65bf64736f6c63430008000033",
  "immutableReferences": {},
  "source": "// SPDX-License-Identifier: MIT\r\npragma solidity ^0.8.0;\r\n\r\ncontract GroupPayment {\r\n    struct Group {\r\n        address payable creator;\r\n        uint totalAmount;\r\n        address[] participants;\r\n        uint balance;\r\n    }\r\n\r\n    mapping(uint => Group) public groups;\r\n    mapping(uint => mapping(address => uint)) public contributions; // Separate mapping for contributions\r\n    uint public groupCount;\r\n\r\n    // Create a new group\r\n    function createGroup(address[] memory _participants, uint _totalAmount) public {\r\n        groupCount++;\r\n        Group storage newGroup = groups[groupCount];\r\n        newGroup.creator = payable(msg.sender);\r\n        newGroup.totalAmount = _totalAmount;\r\n        newGroup.participants = _participants;\r\n        newGroup.balance = 0;\r\n    }\r\n\r\n    // Make payment to the group\r\n    function pay(uint _groupId) public payable {\r\n        Group storage group = groups[_groupId];\r\n        require(msg.value > 0, \"Payment must be greater than zero.\");\r\n        require(isParticipant(_groupId, msg.sender), \"Not a group participant.\");\r\n\r\n        contributions[_groupId][msg.sender] += msg.value;\r\n        group.balance += msg.value;\r\n    }\r\n\r\n    // Check payment status\r\n    function checkPayment(uint _groupId, address _participant) public view returns (uint) {\r\n        return contributions[_groupId][_participant];\r\n    }\r\n\r\n    // Distribute payments\r\n    function distribute(uint _groupId) public {\r\n        Group storage group = groups[_groupId];\r\n        require(group.balance >= group.totalAmount, \"Insufficient funds.\");\r\n        \r\n        group.creator.transfer(group.balance);\r\n        group.balance = 0;\r\n    }\r\n\r\n    function isParticipant(uint _groupId, address _participant) internal view returns (bool) {\r\n        Group storage group = groups[_groupId];\r\n        for (uint i = 0; i < group.participants.length; i++) {\r\n            if (group.participants[i] == _participant) {\r\n                return true;\r\n            }\r\n        }\r\n        return false;\r\n    }\r\n}\r\n",
  "sourcePath": "C:\\Users\\Anmol Upadhyay\\group-payments-web3\\contracts\\GroupPayment.sol",
  "compiler": {
    "name": "solc",
    "version": "0.8.0+commit.c7dfd78e.Emscripten.clang"
  },
  "schemaVersion": "3.4.16",
  "updatedAt": "2024-09-15T11:02:40.440Z",
  "networkType": "ethereum",
  "devdoc": {
    "kind": "dev",
    "methods": {},
    "version": 1
  },
  "userdoc": {
    "kind": "user",
    "methods": {},
    "version": 1
  }
}